:020000040800F2
:10000000C008002049120008D5020008D7020008E5
:10001000DB020008DF020008E30200080000000025
:10002000000000000000000000000000E7020008DF
:10003000E902000800000000EB020008ED020008E1
:1000400063120008631200086312000863120008BC
:1000500063120008631200086312000863120008AC
:10006000631200086312000863120008631200089C
:10007000631200086312000863120008631200088C
:10008000631200086312000863120008631200087C
:10009000631200086312000863120008631200086C
:1000A000631200086312000863120008631200085C
:1000B00063120008B10C00089D2E000863120008AE
:1000C000631200086312000863120008631200083C
:1000D00063120008BD1100086312000863120008D3
:1000E000631200086312000863120008631200081C
:1000F0006312000800F002F800F06BF80AA090E824
:10010000000C82448344AAF10107DA4501D100F0D2
:1001100060F8AFF2090EBAE80F0013F0010F18BF34
:10012000FB1A43F0010318474C3E00006C3E0000F0
:100130000A444FF0000C10F8013B13F0070408BF0D
:1001400010F8014B1D1108BF10F8015B641E05D0AB
:1001500010F8016B641E01F8016BF9D113F0080F60
:100160001EBF10F8014BAD1C0C1B09D16D1E58BFF2
:1001700001F801CBFAD505E014F8016B01F8016B29
:100180006D1EF9D59142D6D370470000002300249C
:1001900000250026103A28BF78C1FBD8520728BF97
:1001A00030C148BF0B607047642903F04F84752944
:1001B00003F04C84782903F08584632903F0D98502
:1001C000732903F0DE85002070471FB51FBD10B5F1
:1001D00010BD03F009FE1146FFF7F7FF00F008F825
:1001E00003F027FE03B4FFF7F2FF03BC00F078FF33
:1001F0001CB50024012500F009FF4FF4A06001F0B8
:1002000043F84FF4E13000F079FF40F67F4141F2CE
:10021000873000F021FD2D4841684820884700F0D4
:1002200097FC284600F081FE00F0DDF900F08AF925
:100230004AE0012000F01CFA012000F0B6FC044660
:10024000012C04D0022C14D0032C2DD123E0204803
:100250004079401C1E4948710846807949791C4EF6
:10026000CDE900103379B2787178307800F0ACFACB
:100270001BE017484079401E1549487108468079AF
:100280004979134ECDE900103379B278717830781E
:1002900000F09AFA09E0681CC5B2082D00D10025CB
:1002A000284600F02CFE00E000BF00BF084840795F
:1002B0000749097901EBC10202EB011100EB81044E
:1002C0000321204600F04DFEB3E700009800002017
:1002D0008C010020704700BFFEE700BFFEE700BFB3
:1002E000FEE700BFFEE770477047704770470000A9
:1002F0000CB50020019000908748006840F48030E1
:100300008549086000BF8448006800F40030009010
:100310000198401C0190009818B90198B0F5A04FC1
:10032000F1D17D48006800F4003010B10120009048
:1003300001E0002000900098012859D1774800681A
:1003400040F00400754908600846006840F002006B
:1003500008600846006840F0010008606E482430DC
:10036000006840F080506C4924310860C8146C4922
:10037000086000BF6A48406800F010000028F9D10A
:10038000654808300068644908310860084600681C
:1003900008600846006808600846006820F47D0090
:1003A00008600846006840F4110008605A48006878
:1003B00040F080705849086000BF5748006800F05E
:1003C00000700028F9D054480830006820F003007D
:1003D0005149083108600846006840F00300086091
:1003E00000BF4D480830006800F00C000C28F8D120
:1003F0000CBD10B54848006840F48070464908605C
:1004000045480830006847490840434908310860BA
:1004100041480068444908403F4908600846006870
:1004200020F4802008603C480830006820F47D00FB
:100430003949083108600020091D0860FFF758FF9E
:100440004FF000603949086010BD70B500220020EF
:10045000002100240023304D08352D6805F00C02E2
:1004600032B1042A10D0082A12D00C2A39D113E054
:10047000294D2D1D2D68C5F342335D1C0126AE406C
:10048000F5032B4E356038E02A4D294E356034E0B7
:10049000294D274E356030E01F4D08352D6805F495
:1004A00070101D4D08352D6805F44001234D05EBF6
:1004B00090452878012505EB9151174D08352D6899
:1004C00005F4803434B91B4D4543B5FBF1F5184EA6
:1004D000356005E0184D4543B5FBF1F5144E356028
:1004E0000BE00D4D2D1D2D68C5F342335D1C01261B
:1004F000AE40F5030E4E356000BF00BF064D083517
:100500002D68C5F303150E4E725D094D2D68D5405B
:10051000074E356070BD000000380240003C0240CC
:10052000007000400CC0FF88FEFFFEEE08ED00E00A
:10053000000000200024F40000127A0004000020D3
:100540000D0000201CB50121032001F099F94FF4A2
:10055000C050009001208DF8040000208DF80600A6
:1005600003208DF805006946114800F05FFF4FF445
:10057000C0510F4800F0CEFF4FF480510C4800F0FE
:10058000CBFF4FF48070009001208DF80400002014
:100590008DF8060003208DF805006946054800F037
:1005A00045FF4FF48071034800F0B4FF1CBD00000C
:1005B000000002400004024070B505460C4600F001
:1005C000B1F9D02000F060FA00F0EDF9284600F013
:1005D0005BFA00F0E8F9204600F056FA00F0E3F983
:1005E00000F0C0F970BD10B500F080F904210E20B4
:1005F000FFF7E2FF00210F20FFF7DEFF10BD0146ED
:1006000001F00F00091101F00F0101EB810251000F
:100610004218D0B2704730B501460A2491FBF4F479
:10062000E2B20A2491FBF4F504FB1514E3B203EBE8
:100630000214E0B230BD70B5044600F073F9D0206A
:1006400000F022FA00F0AFF9204600F01DFA00F0A9
:10065000AAF900F067F9D12000F016FA00F0A3F92A
:10066000002000F03FFA054600F07CF9284670BDF6
:1006700010B504460620FFF7DEFF994908700520F3
:10068000FFF7D9FF964948700420FFF7D4FF94493B
:1006900088700220FFF7CFFF914908710120FFF712
:1006A000CAFF8F4948710020FFF7C5FF8C49887148
:1006B0001120FFF7C0FF8A49C8711220FFF7BBFF66
:1006C000874908720320FFF7B6FF8549C870012CDF
:1006D0002CD10878FFF793FF814908704878FFF71D
:1006E0008EFF7F4948708878FFF789FF7C498870C2
:1006F0000879FFF784FF7A4908714879FFF77FFF8F
:10070000774948718879FFF77AFF75498871C87908
:10071000FFF775FF7249C871087AFFF770FF7049DB
:100720000872C878FFF76BFF6D49C87010BD10B52F
:1007300004460720FFF77FFF6A49C8700820FFF7CB
:100740007AFF684988700920FFF775FF654948708E
:100750000A20FFF770FF63490870012C13D1C87895
:10076000FFF74DFF5F49C8708878FFF748FF5D4984
:1007700088704878FFF743FF5A4948700878FFF7B8
:100780003EFF584908700B20FFF755FF5649887007
:100790000C20FFF750FF544948700D20FFF74BFF26
:1007A00051490870012C0ED18878FFF728FF4E4977
:1007B00088704878FFF723FF4B4948700878FFF7A7
:1007C0001EFF4949087010BD2DE9F04704460D464B
:1007D00016461F46DDE908894FF0000A2046FFF75C
:1007E0001AFF824651460620FFF7E6FE2846FFF72D
:1007F00012FF824651460520FFF7DEFE3046FFF726
:100800000AFF824651460420FFF7D6FE3846FFF71E
:1008100002FF824651460220FFF7CEFE4046FFF718
:10082000FAFE824651460120FFF7C6FE4846FFF712
:10083000F2FE824651460020FFF7BEFE012D01D098
:10084000022D08D105F10C00C5B2002C02DD601E9E
:10085000C4B200E00424691C01EB4101052291FBB4
:10086000F2F1022202FB0562114421442046E21704
:1008700004EB927201EBA201072291FBF2F302FB5F
:100880001311491C01F0FF0A51460320FFF794FEA3
:10089000BDE8F08712490878C11700EB9171891003
:1008A000A0EB810139B90E490978642291FBF2F37A
:1008B00002FB131179B90A490978642291FBF2F31A
:1008C00002FB131149B906490978920091FBF2F332
:1008D00002FB131109B9012070470020FCE700005A
:1008E0008C0100201D000020210000201CB50121EA
:1008F000022000F0C5FF4FF44060009001208DF809
:10090000040000208DF8060003208DF805006946DC
:100910008C4800F08BFD01208B4908608B49C1F8A1
:10092000A8021CBD10B58748006820F44000854926
:1009300008600846006840F4800008600120824991
:1009400008608249C1F8A8020A2000F078FB002064
:100950007D4908600A2000F072FB00207B49C1F845
:10096000A80210BD10B57748006820F44000754912
:1009700008600846006840F4800008600020724962
:10098000091F08607149C1F8AC020A2000F057FB4A
:1009900001206D49091F08606C49C1F8AC020A20AA
:1009A00000F04DFB10BD10B500246648006820F42F
:1009B00040006449086008460068086001206249F8
:1009C00008600A2000F03BFB01206049C1F8A80242
:1009D0000A2000F034FB07E0601CC4B2FA2C03DDEF
:1009E000FFF7C0FF012010BD57488038006800287D
:1009F000F2D15549091F086000BFF4E710B5002087
:100A00005149091F08604F48006820F440004D49D3
:100A100008600846006840F48000086000204B49E8
:100A2000C1F8AC020A2000F00AFB01204649091F68
:100A300008600A2000F003FB00204449C1F8A80226
:100A400010BD10B500204049091F08603D480068EE
:100A500020F440003B4908600846006840F48000EC
:100A6000086001203949C1F8AC020A2000F0E7FA19
:100A700001203549091F08600A2000F0E0FA002033
:100A80003249C1F8A80210BD70B504462D4800686F
:100A900020F440002B4908600846006840F48000BC
:100AA000086000202849091F0860002517E0E009B8
:100AB000254908606006040E0A2000F0C0FA0120F3
:100AC0002249C1F8A8020A2000F0B9FA00201E4904
:100AD000091F08600A2000F0B2FA681CC5B2082D90
:100AE000E5DB70BD70B5054600241648006820F4AB
:100AF000400014490860084600680860002617E0B6
:100B000000201149091F08600A2000F098FA01200E
:100B10000E49C1F8A8026006040E0B488038006830
:100B200008B1601CC4B20A2000F089FA701CC6B279
:100B3000082EE5DB15B9FFF784FF01E0FFF75EFF44
:100B4000204670BD00040240AC824042008040421A
:100B50001CB50121022000F093FE4FF400500090DC
:100B600000208DF8040001208DF807006946384800
:100B700000F05CFC4FF48040009000208DF80400F1
:100B800001208DF807006946314800F04FFC4FF412
:100B90000040009000208DF8040002208DF807002E
:100BA00069462B4800F042FC1CBD10B5044614B148
:100BB0000120284908702748007888B34FF4005175
:100BC000234800F08FFC60B14FF48041204800F0D2
:100BD00089FC30B14FF400411D4800F083FC01282E
:100BE0001FD1322000F04FFA00201A4908704FF44C
:100BF0000051174800F076FC08B9012010BD4FF4F1
:100C00008041134800F06EFC08B90220F6E74FF46B
:100C100000410F4800F066FC012817D10320EDE7E2
:100C2000FFE74FF400510A4800F05CFC01280DD1A9
:100C30008103074800F056FC012807D1C10304488E
:100C400000F050FC10B90120024908700020D5E7DF
:100C500000040240240000207FB505460C46012117
:100C6000022000F02FFE0295ADF804400020ADF800
:100C70000C00ADF8060001A9204801F03FF901225F
:100C800011461E4801F0C7FC1D208DF80000002011
:100C90008DF8010003208DF8020001208DF803007B
:100CA000684600F0F6FA0121144801F0A1F97FBD71
:100CB00010B50121114801F0C5FCF0B101210F4828
:100CC00001F0D1FC0E48006808B9012000E00020C6
:100CD0000B4908600B48D0F8AC0208B9012000E0CD
:100CE0000020094908600748D0F8B00208B901207F
:100CF00000E000200449091D086010BD0004004008
:100D0000A082404200004042AC02404207E06E2117
:100D100001E04A1ED1B20029FBDC421ED0B20028FD
:100D2000F5DC70471CB500208DF8040001208DF81B
:100D300007008020009003208DF805006946AF4829
:100D400000F074FB1CBD1CB501208DF804000020D0
:100D50008DF806008020009003208DF8050069467C
:100D6000A64800F063FB1CBD10B58021A34800F02D
:100D7000D1FB4021A14800F0CDFB0520FFF7C6FFC5
:100D800080219E4800F0C8FB0520FFF7BFFF4021EF
:100D90009A4800F0C1FB10BD10B58021974800F0C3
:100DA000BBFB4021954800F0B5FB0520FFF7AEFFE7
:100DB0008021924800F0AEFB0520FFF7A7FF4021FD
:100DC0008E4800F0A9FB10BD10B5FFF7ABFF402126
:100DD0008A4800F09FFB8021884800F083FB0128AF
:100DE00001D1012400E000244021844800F094FB5C
:100DF0000520FFF78BFFFFF7A6FF204610BD10B5BB
:100E00000446FFF7A0FF012C04D180217B4800F0AD
:100E100081FB03E08021794800F07EFB4021774888
:100E200000F078FB0520FFF771FF4021734800F0C8
:100E300073FB10BD70B504464021704800F06CFB98
:100E4000002520E004F0800020B180216B4800F0F4
:100E500061FB03E08021694800F05EFB6006040E40
:100E60000220FFF753FF4021644800F053FB0520A8
:100E7000FFF74CFF4021614800F04EFB0520FFF7D3
:100E800045FF681CC5B2082DDCDBFFF79DFF70BD78
:100E900070B5FFF747FF8021584800F03BFB002565
:100EA00019E04021554800F035FB6006040E802112
:100EB000524800F017FB012802D144F0010401E080
:100EC00004F0FE0480214D4800F026FB0520FFF7CA
:100ED0001DFF681CC5B2082DE3DBFFF723FF20468A
:100EE00070BD70B505460C46FFF73EFF2846FFF77C
:100EF000A1FF2046FFF79EFFFFF74EFF70BD1CB518
:100F000004463FA103C9CDE90001002C07DB072CF3
:100F100005DC1DF804104820FFF7E3FF04E09DF80E
:100F200000104820FFF7DDFF1CBD1CB50446012161
:100F3000022000F0A5FC01208DF8040000208DF8AF
:100F40000600C020009003208DF8050069462B485C
:100F500000F06CFAC82000F096F82046FFF7CFFFAB
:100F60001CBD2DE9F047044689464FF47A70B4FB66
:100F7000F0F505EB4500C0EBC510A4EBC000642103
:100F8000B0FBF1F605EB4500C0EBC510A4EBC000CB
:100F900006EBC60101EB0611A0EB81000A21B0FBB4
:100FA000F1F705EB4500C0EBC510A4EBC00006EB64
:100FB000C60101EB0611A0EB810007EB8701A0EB56
:100FC00041000A21B0FBF1F201FB12080E48415D1D
:100FD0006820FFF786FF0C48815D6A20FFF781FFDC
:100FE0000948C15D6C20FFF77CFF074810F8081026
:100FF0006E20FFF776FFBDE8F08700000004024096
:1010000011213141516171012500002010B56FF0AF
:10101000040000F08BF92E4800682E49B0FBF1F077
:101020002D4908700846007800EB4001C1EBC01064
:101030004FF6FF7101EAC0002849088010BD014643
:10104000254A12784A434FF0E0235A6100229A6100
:101050001A46126942F001021A6100BF4FF0E02205
:10106000106900F001021AB100F48032002AF5D0B4
:101070004FF0E022126922F001024FF0E0231A61E2
:1010800000229A6170470146144A12884A434FF081
:10109000E0235A6100229A611A46126942F0010265
:1010A0001A6100BF4FF0E022106900F001021AB18E
:1010B00000F48032002AF5D04FF0E022126922F0CD
:1010C00001024FF0E0231A6100229A61704700008C
:1010D0000000002000127A003000002032000020C2
:1010E00000BF704700BF544A128802F04002002A35
:1010F000F9D0C2B2504B1B1D1A80704710B588B092
:1011000004460121880300F0CCFB0121084600F0D1
:10111000B7FB07220921494800F00BFA07220A21F0
:10112000464800F006FA4FF40070069003208DF850
:101130001D0002208DF81C0000208DF81E000120EB
:101140008DF81F0006A93D4800F070F94FF480604B
:10115000069002208DF81C0000208DF81F0006A9C3
:10116000364800F063F925208DF8040003208DF83F
:1011700005008DF8060001208DF8070001A800F099
:1011800088F802940020ADF80C00ADF80E00ADF820
:101190001000ADF814000C20ADF8120002A926488A
:1011A00000F085FC012240F22551234800F0BAFDF1
:1011B0000121214800F000FD08B010BD10B540F23B
:1011C00025511D4800F0E9FD10B31B4800F023FD38
:1011D000C4B21B48008800F40040C8B91848008811
:1011E00000F4804060B10A2C03D00020144908802C
:1011F00020E01348008840F400401149088019E0BD
:101200000D2C06D10E48008840F480400C4908801F
:1012100010E00B480088C0F30D000A490C54084840
:101220000088401C0649088008460088C72801DD60
:101230000020088010BD000000380140000002407E
:1012400038000020950100200948804709480047E0
:10125000FEE7FEE7FEE7FEE7FEE7FEE7FEE7FEE766
:10126000FEE7FEE704480549054A064B70470000C3
:10127000F3030008F5000008C0020020C0080020A9
:10128000C0040020C004002032490143324A1160EA
:10129000704770B5002100230F22C4781CB32E4C78
:1012A000246804F4E064C4F5E064C4F30721C1F1E8
:1012B0000404E3B20A4144789C40E1B284781440CB
:1012C00021430C07210E254C05786155047804F064
:1012D0001F050124AC4005786D11AD0005F1E02536
:1012E000C5F8004109E0047804F01F050124AC4072
:1012F0001B4D0678761145F8264070BD194A0A4004
:101300000243154B1B1F1A60704739B1124A121D58
:1013100012680243104B1B1D1A6006E00E4A121D94
:10132000126882430C4B1B1D1A607047042808D1B9
:101330004FF0E021096941F004014FF0E022116112
:1013400007E04FF0E021096921F004014FF0E022AD
:10135000116170470000FA050CED00E000E400E0C8
:1013600080E100E080FFFF1F10B504468248844200
:1013700008D10121084600F0B6FA0021012000F052
:10138000B2FA52E07D48844208D10121022000F0E7
:10139000AAFA0021022000F0A6FA46E0784884422A
:1013A00008D10121042000F09EFA0021042000F061
:1013B0009AFA3AE07348844208D10121082000F0EB
:1013C00092FA0021082000F08EFA2EE06E48844246
:1013D00008D10121102000F086FA0021102000F031
:1013E00082FA22E06948844208D10121402000F0BD
:1013F0007AFA0021402000F076FA16E06448844230
:1014000008D10121802000F06EFA0021802000F038
:101410006AFA0AE05F48844207D10121202000F0E7
:1014200062FA0021202000F05EFA10BDF0B50246FD
:101430000B46002100240025002000BF35E00126D6
:1014400006FA01F41E6806EA0405A5422CD11068CC
:101450004F000326BE40B0431E794F00BE403043CC
:1014600010601E79012E02D01E79022E12D19068D2
:101470004F000326BE40B0435E794F00BE4030436C
:101480009060908801268E40B0439E798E40B6B21F
:1014900030439080D0684F000326BE40B043DE79D1
:1014A0004F00BE403043D060491C1029C7D3F0BD67
:1014B0004FF6FF7101600021017141718171C171AD
:1014C000704708B54FF480320092009A0A430092A8
:1014D000009AC261C161009AC261C2690092C26988
:1014E000009208BD02460020138A0B400BB1012078
:1014F00000E0002070470146088A7047024600203D
:10150000938A0B400BB1012000E000207047014698
:10151000888A704701837047418370470AB101830D
:1015200000E04183704781827047828A4A4082820C
:101530007047F0B5002300244D07ED0E02FA05F3C5
:10154000CE1000F1200555F826504E07F70E0F2655
:10155000BE40B543CF1000F1200646F82750CE100C
:1015600000F1200555F8265045EA0304CE1000F19D
:10157000200545F82640F0BD00000240000402406E
:1015800000080240000C0240001002400018024017
:10159000001C024000140240F948006840F48070CA
:1015A000F7490860F64808300068F6490840F449F1
:1015B00008310860F2480068F3490840F0490860C3
:1015C0000846006820F480200860ED480830006874
:1015D00020F47D00EA49083108600020091D0860F8
:1015E00070470021E64A921C11701146087070473E
:1015F00010B501460022002300204A11012A02D121
:10160000DF4C236802E0DE4C3434236801F01F0213
:10161000012494401C400CB1012000E0002010BDCA
:1016200038B5002000900024002500BF3120FFF7CE
:10163000DFFF05460098401C00900098B0F5A04FD1
:1016400001D0002DF2D03120FFF7D2FF08B10124E4
:1016500000E00024204638BDC949C91D0870704704
:1016600001460020C64A121D106820F4604008435D
:1016700010607047C5490862704701460020C04AA3
:10168000121D106820F4F85040EA012010607047E5
:10169000BE49086070470021B94A353211701146C1
:1016A00008707047BA490860704710B541EA0203F4
:1016B0000343B34C0A34237010BDB4490866704725
:1016C000B24908677047B2492C310860704740EA58
:1016D0000102AB4B0B331A70704701460020A84A39
:1016E0000832106820F00300084310607047A448D7
:1016F0000830006800F00C00704701460020A04A46
:101700000832106820F0F00008431060704701466E
:1017100000209B4A0832106820F4E0600843106003
:10172000704701460020964A0832106820F4605045
:1017300040EAC10010607047F0B50021002200238C
:101740000026002400258E4F08373F6807F00C0163
:1017500031B1042912D0082913D00C2937D113E054
:10176000874F3F1D3F68C7F342356F1C4FF0010C98
:101770000CFA07FC4FEACC37076036E0854F07606C
:1017800033E0854F076030E07D4F08373F6807F44E
:1017900070127B4F08373F6807F440037F4F07EB19
:1017A00092473A78012707EB9353754F08373F6804
:1017B00007F480362EB9774F5743B7FBF3F707602E
:1017C00004E0754F5743B7FBF3F707600DE06C4F2C
:1017D0003F1D3F68C7F342356F1C4FF0010C0CFAF8
:1017E00007FC4FEACC37076000BF00BF644F0837E3
:1017F0003F6807F0F0010909694F7C5C0768E74022
:1018000047605F4F08373F6807F4E061090A644F9B
:101810007C5C4768E7408760594F08373F6807F4AA
:101820006051C90A5E4F7C5C4768E740C760F0BD05
:10183000002100F44032B2F5403F08D1504A11680F
:1018400021F0C04100F0C04211434D4A11604C4AA2
:101850003432126822F44032494B34331A601A464B
:10186000126800F440331A43454B34331A60704712
:10187000474958310860704745495C3108607047F6
:1018800039B13F4A1C32126802433D4B1C331A6087
:1018900006E03B4A1C3212688243394B1C331A6003
:1018A000704739B1364A203212680243344B203334
:1018B0001A6006E0324A203212688243304B2033ED
:1018C0001A60704739B12E4A2432126802432C4BF9
:1018D00024331A6006E02A4A243212688243284BD5
:1018E00024331A60704739B1254A10321268024316
:1018F000234B10331A6006E0214A103212688243EB
:101900001F4B10331A60704739B11D4A14321268E8
:1019100002431B4B14331A6006E0194A1432126852
:101920008243174B14331A60704739B1144A183286
:1019300012680243124B18331A6006E0104A18323C
:10194000126882430E4B18331A60704739B10C4A43
:101950002832126802430A4B28331A6006E0084A0C
:10196000283212688243064B28331A607047C9B187
:10197000034A2C3212680243014B2C331A6016E0E2
:10198000003802400CC0FF88FEFFFEEE0000474218
:10199000800647420024F40000127A003A0000203A
:1019A000430000201F4A126882431E4B1A60704792
:1019B00039B11C4A121D126802431A4B1B1D1A60D2
:1019C00006E0184A121D12688243164B1B1D1A604E
:1019D000704739B1134A1F3A12780243114B1F3B2B
:1019E0001A7006E00F4A1F3A127882430D4B1F3BD4
:1019F0001A7070470B480830006840F08070094941
:101A000008310860704701460020064A203A1268F3
:101A10000A400AB1012000E00020704701491E3948
:101A2000087070472C38024010B50446F7488442CD
:101A300009D101218803FFF767FF00214FF480409F
:101A4000FFF762FF32E0F248844209D101214804E5
:101A5000FFF76BFF00214FF40030FFF766FF25E032
:101A6000EC48844209D101218804FFF75EFF002180
:101A70004FF48020FFF759FF18E0E748844209D16E
:101A80000121C804FFF751FF00214FF40020FFF7A8
:101A90004CFF0BE0E148844208D101210805FFF723
:101AA00044FF00214FF48010FFF73FFF10BD2DE9E8
:101AB000FF4705460E460024A14600BFA046B08958
:101AC00000B100BF2C8A24F44054F08804432C82D7
:101AD000AC8941F20C608443B08831890843718934
:101AE00008430443AC81AC8A24F44074B0890443B5
:101AF000AC826846FFF720FEC448854202D1DDF87B
:101B00000C9001E0DDF80890A88900F4004040B195
:101B100009EBC90000EB091031684900B0FBF1F78F
:101B200007E009EBC90000EB091031688900B0FB40
:101B3000F1F76420B7FBF0F004012009642101FBF8
:101B40001078A88900F4004040B1322000EBC800B2
:101B5000B0FBF1F000F00700044308E0322000EB96
:101B600008106421B0FBF1F000F00F0004432C8159
:101B7000BDE8FF874FF41651016000218180C180CC
:101B800001810C21418100218181704710B50246FD
:101B90000020108A20F470600B884C8823438C88C6
:101BA0002343CC8823431843108210BD00210180B9
:101BB00041808180C180704721B1828942F4005206
:101BC000828104E082894DF6FF731A40828170475A
:101BD000028B02F47F420283028B0A430283704726
:101BE00021B1828942F40042828103E08289C2F3FA
:101BF0000E028281704721B1828A42F400628282A1
:101C000004E0828A4FF2FF731A4082827047C1F368
:101C100008028280704701468888C0F30800704738
:101C2000028A4FF6F0731A400282028A0A43028245
:101C3000704721B1828942F00202828104E08289E8
:101C40004FF6FD731A408281704782894FF2FF730D
:101C50001A40828182890A4382817047028A4FF644
:101C6000DF731A400282028A0A430282704721B15E
:101C7000028A42F48042028204E0028A4BF6FF7339
:101C80001A4002827047818941F0010181817047C9
:101C900021B1828A42F00802828204E0828A4FF6F1
:101CA000F7731A4082827047028BD2B20283028B92
:101CB00042EA01220283704721B1828A42F0200267
:101CC000828204E0828A4FF6DF731A408282704774
:101CD00021B1828A42F01002828204E0828A4FF6A9
:101CE000EF731A4082827047828A4FF6FB731A4064
:101CF0008282828A0A438282704721B1828A42F0BC
:101D00000202828204E0828A4FF6FD731A408282C8
:101D100070471AB1838A0B43838202E0838A8B4324
:101D200083827047F0B5034600240026002500207A
:101D300040F66A17B94200D100BF1846C1F34214F9
:101D400001F01F06012707FA06F5012C01D10C301E
:101D500004E0022C01D1103000E014301AB1076801
:101D60002F43076002E00768AF430760F0BD0246FB
:101D70000020B1F5007F00D100BF13880B400BB1EC
:101D8000012000E00020704701F40072B2F5007FEE
:101D900000D100BFCA430280704770B502460024DC
:101DA00000230025002040F66A16B14200D100BF92
:101DB000C1F3421501F01F03012606FA03F3012DBA
:101DC00002D19689334006E0022D02D1168A3340B3
:101DD00001E0968A33400C12012606FA04F41688B4
:101DE000344013B10CB1012000E0002070BD10B5EB
:101DF0000022002340F66A14A14200D100BF0A125B
:101E000001249440A3B2DC43048010BD003801409B
:101E10000044004000480040004C0040005000409A
:101E200010B50446B4F1804F08D101210846FFF7F0
:101E30007CFD00210120FFF778FD5EE0FB48844235
:101E400008D101210220FFF770FD00210220FFF7D9
:101E50006CFD52E0F648844208D101210420FFF7CE
:101E600064FD00210420FFF760FD46E0F148844254
:101E700008D101210820FFF758FD00210820FFF7B5
:101E800054FD3AE0EC48844208D101211020FFF7CC
:101E90004CFD00211020FFF748FD2EE0E74884426A
:101EA00008D101212020FFF740FD00212020FFF76D
:101EB0003CFD22E0E248844208D101210420FFF7E2
:101EC00023FD00210420FFF71FFD16E0DD488442BA
:101ED00008D101210820FFF717FD00210820FFF796
:101EE00013FD0AE0D848844207D101211020FFF7F2
:101EF0000BFD00211020FFF707FD10BD0022028816
:101F0000B0F1804F08D0C94B984205D0C84B9842D9
:101F100002D0C84B984204D14FF68F731A404B88B9
:101F20001A43C54B984207D0C44B984204D04FF691
:101F3000FF431A400B891A4302804B68C3620B8827
:101F400003850123838270474FF0FF3141600021F8
:101F500001800181418070470185828270470A4675
:101F6000002101884FF68F7319401143018070479B
:101F700041627047C16270470146486A7047014636
:101F8000088D704721B1028842F00202028004E00D
:101F900002884FF6FD731A400280704721B1028813
:101FA00042F00402028004E002884FF6FB731A40FC
:101FB0000280704721B1028842F08002028004E072
:101FC00002884FF67F731A400280704702884FF6EE
:101FD000F7731A40028002880A4302807047028821
:101FE0004FF6FF431A40028002880A43028070477E
:101FF00021B1028842F00102028004E002884FF61B
:10200000FE731A400280704730B500230022048C12
:102010004FF6FE752C400484028C038B4FF68F74B0
:102020002340AC1E23400C8823436C1E22400C89A5
:1020300022434C8822434C6844630383028430BDAE
:1020400030B500230022048C4FF6EF752C40048439
:10205000028C038B48F6FF7423400C884FF6FF7503
:1020600005EA042423434FF6DF7422400C8905EA75
:10207000041422434C8805EA041422434C68846308
:102080000383028430BD30B500230022048C4FF658
:10209000FF652C400484028C838B4FF68F742340A1
:1020A0000C8823434FF6FF5422400C894FF6FF75EE
:1020B00005EA042422434C8805EA042422434C68A0
:1020C000C4638383028430BD30B500230022048CB6
:1020D0004EF6FF752C400484028C838B48F6FF7407
:1020E00023400C884FF6FF7505EA042423434DF680
:1020F000FF7422400C8905EA043422434C8805EA27
:10210000043422434C6804648383028430BD00217C
:102110000180418041600181704770B50346002015
:1021200000241846183001258D40ACB21D8CA54303
:102130001D8409B1082909D100EB6100056825F06B
:10214000700505600568154305600EE00D1FC5F3B9
:102150004E052844056825F4E045056005684FF6FE
:10216000FF7606EA02263543056070BD416370477D
:1021700081637047C1637047016470470A4600215C
:10218000018B4FF68F7319401143018370470A4644
:102190000021018B48F6FF7319404FF6FF7303EAE5
:1021A00002231943018370470A460021818B4FF6B1
:1021B0008F7319401143818370470A460021818B38
:1021C00048F6FF7319404FF6FF7303EA02231943E1
:1021D000818370470A460021018B4FF6F77319403F
:1021E0001143018370470A460021018B4FF2FF73B0
:1021F00019404FF6FF7303EA022319430183704726
:102200000A460021818B4FF6F773194011438183F1
:1022100070470A460021818B4FF2FF7319404FF639
:10222000FF7303EA022319438183704700040040CF
:1022300000080040000C0040001000400014004066
:1022400000080140000C0140001001400A46002136
:10225000018B4FF6FB7319401143018370470A4607
:102260000021018B4FF6FF3319404FF6FF7303EA4D
:1022700002231943018370470A460021818B4FF6E0
:10228000FB7319401143818370470A460021818BFB
:102290004FF6FF3319404FF6FF7303EA0223194349
:1022A000818370470A460021018B4FF67F731940E6
:1022B0001143018370470A460021018BC1F30E01CF
:1022C0004FF6FF7303EA02231943018370470A465E
:1022D0000021818B4FF67F73194011438183704732
:1022E0000A460021818BC1F30E014FF6FF7303EA0A
:1022F00002231943818370470A460021018C4FF65F
:10230000FD7319401143018470470A460021018C76
:102310004FF6DF7319404FF6FF7303EA02131943B8
:10232000018470470A460021018C4FF6FF53194083
:102330004FF6FF7303EA02231943018470470A46EC
:102340000021018C4DF6FF7319404FF6FF7303EA2D
:10235000023319430184704702894FF6F7731A401C
:10236000028102890A430281704730B500230124AB
:102370008C40A3B2048C9C430484048C02FA01F5C3
:10238000ADB22C43048430BD828B4FF2FF331A4030
:102390008283828B4FF6FF7303EA01231A43828301
:1023A0007047F0B50C461546002100220026078C28
:1023B0004EF6FF7C07EA0C070784818B028C4FF6F0
:1023C000FF7707EA043640F6FF4739404FF6FF77BC
:1023D00007EA052739434FF6FF7707EA0337394302
:1023E00045F6FF773A4046F480573A4381830284AA
:1023F000F0BD828B4FF6F3731A408283828B0A43BF
:1024000082837047F0B50C46154600210022002655
:10241000078C4FF6FF6C07EA0C070784818B028C50
:102420004FF6FF7707EA04264FF60C7739404FF650
:10243000FF7707EA03172F4339434FF2FF573A401C
:1024400046F480773A4381830284F0BD028B4FF2D9
:10245000FF331A400283028B4FF6FF7303EA012316
:102460001A4302837047F0B50C461546002100223E
:102470000026078C4FF6EF7C07EA0C070784018BD8
:10248000028C4FF6FF7707EA041640F6FF47394003
:102490004FF6FF7707EA033739434FF6FF7707EA2E
:1024A000052739434FF65F773A4046F010073A4325
:1024B00001830284F0BD028B4FF6F3731A4002834E
:1024C000028B0A4302837047F0B50C461546002183
:1024D0000022068C4FF6FE773E400684018B028C6C
:1024E0004FF60C7631407E1C06EA03162E4331432C
:1024F0004FF6F576324044F0010632430183028400
:10250000F0BD70B505460C46208850B92389A288D5
:1025100061882846FFF7D8FFE1882846FFF7CBFF00
:1025200025E0208804280AD12389A28861882846CA
:10253000FFF799FFE1882846FFF788FF17E020881A
:1025400008280AD12389A28861882846FFF75AFF04
:10255000E1882846FFF74DFF09E02389A2886188BA
:102560002846FFF71EFFE1882846FFF70DFF70BDE4
:10257000002101804180012181800021C1800181F1
:1025800070472DE9F04105460C460026012760887A
:1025900008B9022600E00026A088012801D1022700
:1025A00000E001272088A0B92389A28861882846F5
:1025B000FFF78AFFE1882846FFF77DFF23893A4627
:1025C00031462846FFF74FFFE1882846FFF73EFFD8
:1025D00013E02389A28861882846FFF744FFE18839
:1025E0002846FFF733FF23893A4631462846FFF74E
:1025F0006BFFE1882846FFF75EFFBDE8F0810146EA
:10260000486B70470146886B70470146C86B70473E
:102610000146086C70471AB183890B43838102E03D
:1026200083898B43838170478182704702460020F3
:10263000138A0B400BB1012000E000207047CA4311
:102640000282704730B50246002000230024158A1C
:1026500005EA0103958905EA010413B10CB10120D3
:1026600000E0002030BDCA430282704741EA020305
:10267000A0F8483070471AB183890B43838102E088
:1026800083898B438381704721B1828842F008029D
:10269000828004E082884FF6F7731A408280704788
:1026A00001894FF6F8721140018170470A460021F6
:1026B00001894FF68F73194011430181704730B57E
:1026C00004460D4629462046FFF7F0FF208940F0DA
:1026D0000700208130BD2DE9F04104460D46164625
:1026E0001F46602D06D13B46012231462046FFF7AA
:1026F000BAFE05E03B46012231462046FFF7E4FEE4
:1027000029462046FFF7D2FF208940F007002081AC
:10271000BDE8F08130B50C4600210189C9B24FF601
:10272000FF7505EA0325154325432943018130BD83
:102730002DE9F04105460E461746984600244346CB
:102740003A4631462846FFF7E5FF2C894FF6F870E8
:10275000044044F007044FF68F70044044F07004C6
:102760002C81BDE8F081F0B504460D4616461F46A3
:102770003B46324629462046FFF7CCFF208940F4ED
:1027800080402081F0BD82884FF68F731A4082808E
:1027900082880A438280704702894FF6F8731A4094
:1027A000028102890A430281704702894FF67F73D2
:1027B0001A40028102890A4302817047F0B50C4633
:1027C00015461E460021002200230189028B038C3E
:1027D0004FF6F877394021434FF6FC473A4040F234
:1027E00001173A434FF6DD773B404FF6FF7707EA94
:1027F00006172F433B43018102830384F0BD21B1BF
:10280000828842F08002828004E082884FF67F73E3
:102810001A408280704730F8502F02EA114202803D
:1028200002888BB21A4320F85029704710B58CB03B
:1028300004461E230BAA03A9204600F0ADFE00901B
:10284000009810B101200CB010BD9DF82C0004447C
:1028500000200B900EE040489DF82C2050F82210EC
:1028600003A800F001FE00B908E09DF82C00401C10
:10287000C0B20B909DF82C000728ECD300BF9DF848
:102880002C00072863D2DFE800F004053C5E656495
:10289000630000BF31A001F07DF831A001F07AF8AB
:1028A0003FA001F077F84EA001F074F85CA001F0B1
:1028B00071F86BA001F06EF879A001F06BF886A0BA
:1028C00001F068F88BA001F065F890A001F062F8C3
:1028D00094A001F05FF899A001F05CF89EA001F0CF
:1028E00059F8A4A001F056F8B0A001F053F8BDA02B
:1028F00001F050F8C8A001F04DF8D4A001F04AF85A
:102900009AE216A001F046F8E0A001F043F800209A
:102910000B900EE0ED4800689DF82C2000EBC20003
:102920004168EBA001F036F89DF82C00401CC0B2C5
:102930000B90E648007D9DF82C108842EADC07A049
:1029400001F028F878E205A001F024F8C4E171E272
:1029500045E219E2ECE10000540000200D0A0000FD
:102960002D2D2D2D2D2D2D2D2D2D2D2D2D2D2D2D97
:102970002D2D2D2D2D2D2D2D55534D41525420569D
:10298000332E312D2D2D2D2D2D2D2D2D2D2D2D2D6C
:102990002D2D2D2D2D2D2D2D2D2D2D200D0A000011
:1029A0002020202055534D415254CAC7D3C9414C11
:1029B00049454E54454BBFAAB7A2B5C4D2BBB8F6E1
:1029C000C1E9C7C9B5C4B4AEBFDAB5F7CAD4BBA5AF
:1029D000BDBBD7E9BCFE2CCDA8B9FD200D0A000077
:1029E000CBFC2CC4E3BFC9D2D4CDA8B9FDB4AEBFD3
:1029F000DAD6FACAD6B5F7D3C3B3CCD0F2C0EFC398
:102A0000E6B5C4C8CEBACEBAAFCAFD2CB2A2D6B40F
:102A1000D0D02ED2F2B4CB2CC4E3BFC90D0A000033
:102A2000D2D4CBE6D2E2B8FCB8C4BAAFCAFDB5C4C2
:102A3000CAE4C8EBB2CECAFD28D6A7B3D6CAFDD722
:102A4000D62831302F3136BDF8D6C629A1A2D7D627
:102A5000B7FBB4AEA1A2BAAFCAFDC8EB0D0A000025
:102A6000BFDAB5D8D6B7B5C8D7F7CEAAB2CECAFDA9
:102A7000292CB5A5B8F6BAAFCAFDD7EEB6E0D6A7F1
:102A8000B3D63130B8F6CAE4C8EBB2CECAFD2CB228
:102A9000A2D6A7B3D6BAAFCAFDB7B5200D0A0000BB
:102AA000BBD8D6B5CFD4CABE2ED0C2D4F6B2CECA09
:102AB000FDCFD4CABEBDF8D6C6C9E8D6C3B9A6C430
:102AC000DC2CD0C2D4F6BDF8D6C6D7AABBBBB9A6FB
:102AD000C4DC2E0D0A000000BCBCCAF5D6A7B3D6D4
:102AE0003A7777772E6F70656E6564762E636F6DBB
:102AF0000D0A000055534D415254D3D037B8F6CF8C
:102B0000B5CDB3C3FCC1EE3A0D0A00003F3A202018
:102B100020202020BBF1C8A1B0EFD6FAD0C5CFA2AB
:102B20000D0A000068656C703A202020BBF1C8A136
:102B3000B0EFD6FAD0C5CFA20D0A00006C6973744D
:102B40003A202020BFC9D3C3B5C4BAAFCAFDC1D093
:102B5000B1ED0D0A0A00000069643A20202020200F
:102B6000BFC9D3C3BAAFCAFDB5C44944C1D0B1EDE2
:102B70000D0A0A006865783A20202020B2CECAFDEE
:102B80003136BDF8D6C6CFD4CABE2CBAF3B8FABF18
:102B9000D5B8F12BCAFDD7D6BCB4D6B4D0D0BDF8C9
:102BA000D6C6D7AABBBB0D0A0A0000006465633A0B
:102BB00020202020B2CECAFD3130BDF8D6C6CFD4F9
:102BC000CABE2CBAF3B8FABFD5B8F12BCAFDD7D616
:102BD000BCB4D6B4D0D0BDF8D6C6D7AABBBB0D0AFC
:102BE0000A00000072756E74696D653A312CBFAAD7
:102BF000C6F4BAAFCAFDD4CBD0D0BCC6CAB13B3044
:102C00002CB9D8B1D5BAAFCAFDD4CBD0D0BCC6CAC6
:102C1000B13B0D0A0A000000C7EBB0B4D5D5B3CC68
:102C2000D0F2B1E0D0B4B8F1CABDCAE4C8EBBAAFD3
:102C3000CAFDC3FBBCB0B2CECAFDB2A2D2D4BBD8CF
:102C4000B3B5BCFCBDE1CAF82E0D0A002D2D2D2D0B
:102C50002D2D2D2D2D2D2D2D2D2D2D2D2D2D2D2DA4
:102C60002D2D2D2D2D2D414C49454E54454B2D2DAF
:102C70002D2D2D2D2D2D2D2D2D2D2D2D2D2D2D2D84
:102C80002D2D2D2D2D2D2D200D0A00002D2D2D2D1E
:102C90002D2D2D2D2D2D2D2D2D2D2D2D2D2D2D2D64
:102CA0002D2D2D2D2DBAAFCAFDC7E5B5A52D2D2D86
:102CB0002D2D2D2D2D2D2D2D2D2D2D2D2D2D2D2D44
:102CC0002D2D2D2D2D2D2D2D200D0A0098000020AD
:102CD00025730D0A00000000F0A000F05BFE00204C
:102CE0000B901AE0FD4909689DF82C2001EBC20108
:102CF00001AB02AA486803A900F074FCF748006819
:102D00009DF82C1050F8312003A9F5A000F042FEE8
:102D10009DF82C00401CC0B20B90F048007D9DF83F
:102D20002C108842DEDCAFF2CC3000F033FE83E0C2
:102D3000AFF2D83000F02EFE0BAA03A9204600F017
:102D40002DFD9DF82C00C8B9694603A800F0BFFB13
:102D50000B909DF82C0020B9E6A0009900F01AFE17
:102D60000EE09DF82C00042801D002206BE5E4A0C1
:102D700000F010FE0120D949C87501E0022062E58B
:102D8000DEA000F007FE57E0DCA000F003FE0BAA77
:102D900003A9204600F002FD9DF82C00C8B9694641
:102DA00003A800F094FB0B909DF82C0020B9D9A04B
:102DB000009900F0EFFD0EE09DF82C00042801D0F2
:102DC000022040E5D6A000F0E5FD0020C349C8750B
:102DD00001E0022037E5C9A000F0DCFD2CE0C7A02F
:102DE00000F0D8FD0BAA03A9204600F0D7FC9DF8FF
:102DF0002C00C8B9694603A800F069FB0B909DF848
:102E00002C0078B9B549009881F8EC00084690F894
:102E1000EC0018B1C7A000F0BDFD07E0CCA000F0A9
:102E2000B9FD03E002200EE502200CE5B3A000F09E
:102E3000B1FD01E0012006E500BF002003E5CB481D
:102E4000008820F00100C94908804FF6FF70C7498B
:102E50001C3108600020C549143108609F49C1F841
:102E6000F0007047C148008800F0010040B19B4865
:102E7000D0F8F0004FF6FF7108449849C1F8F0000F
:102E80009648D0F8F000B9491431096808449349CC
:102E9000C1F8F0000846D0F8F000704710B5B3480C
:102EA000008800F0010058B18C4908698047002073
:102EB000AE49143108604FF47A70AC491C31086097
:102EC000AA48008820F00100A849088010BD7FB5FD
:102ED00005460C4601210420FEF7F4FC0295ADF8EE
:102EE00004400020ADF80C00ADF8060001A99F4891
:102EF0001038FFF703F8012241219C481038FFF7F2
:102F00008AFB1E208DF8000003208DF801008DF84B
:102F1000020001208DF803006846FEF7BAF901218E
:102F200092481038FFF764F87FBD10B5044604EBF3
:102F3000C40000EB04100122C2EB800081B24FF408
:102F40007A70FFF7C4FF01206449C87510BD30B521
:102F500095B0054613AB12AA09A9284600F042FB1A
:102F6000044614B1204615B030BD0020149026E070
:102F70005A4909689DF8502001EBC20113AB11AA10
:102F8000486801A900F02EFB04460CB12046EAE790
:102F900009A901A800F068FA60B99DF844009DF8FD
:102FA0004810884201DD0220DDE79DF850004B49C2
:102FB00088750AE09DF85000401CC0B21490474844
:102FC000007D9DF850108842D2DC00BF4348007D50
:102FD0009DF85010884201D10420C4E714A9284666
:102FE00000F04DFC04460CB12046BCE79DF85000B3
:102FF0003A4948750020B6E72DE9F0419AB000261D
:103000003648847D007DA04202DC1AB0BDE8F08124
:103010003249096801EBC40106AB07AA486808A950
:1030200000F0E0FA08A952A000F0B4FC0025B9E0D5
:103030002A48008B0121A9400840D8B122214EA086
:1030400000F0A8FC284600F00DFC24492431471864
:1030500039464AA000F09EFC222147A000F09AFCCD
:10306000284600F0FFFB1D492431084410A941F80F
:1030700025008DE0284600F0F5FB1849243108585A
:1030800010A941F825001548C07D30B910A850F8A6
:1030900025103BA000F07EFC7AE073E02D2D2D2D55
:1030A0002D2D2D2D2D2D2D2D2D2D2D2D2D2D2D2D50
:1030B0002D2D2D2D2DBAAFCAFD204944202D2D2DAB
:1030C0002D2D2D2D2D2D2D2D2D2D2D2D2D2D2D2D30
:1030D0002D2D2D2D2D2D2D2D200D0A009800002099
:1030E00025732069642069733A0D0A3058253038F9
:1030F000580D0A004845583A305825580D0A000026
:103100003136BDF8D6C6B2CECAFDCFD4CABE210D67
:103110000A0000004445433A256C750D0A00000082
:103120003130BDF8D6C6B2CECAFDCFD4CABE210D4D
:103130000A00000052756E2054696D652043616C71
:1031400063756C6174696F6E204F4E0D0A0000004C
:1031500052756E2054696D652043616C63756C61B6
:1031600074696F6E204F46460D0A0000100800403B
:103170000D0A257328000000256300002573000058
:10318000256C750010A850F8251095A000F002FCE1
:103190009DF81C00401EA84202D093A000F0FAFB4C
:1031A000681CC5B29DF81C008542FFF641AF8FA098
:1031B00000F0F0FBFFF743FE8D48407D0B280DD259
:1031C000DFE800F0060D151E27323F4E5F728700C4
:1031D0008749096851F834008047064690E0844AE0
:1031E000126852F8341010988847064688E0804BE1
:1031F0001B6853F83420DDE91001904706467FE054
:103200007B4F3F6857F8343010A807C898470646E8
:1032100076E0DFF8DCC1DCF800C05CF8347010A8A0
:103220000FC8B84706466BE01498DFF8C4C1009099
:10323000DCF800C05CF8347010A80FC8B847064628
:103240005EE0DDE91401DFF8A8C1CDE90001DCF89A
:1032500000C05CF8347010A80FC8B84706464FE0AD
:10326000DDE914121698DFF888C1CDE9001202904A
:10327000DCF800C05CF8347010A80FC8B8470646E8
:103280003EE0DDE91423DDE91610DFF864C1CDE985
:103290000023CDE90210DCF800C05CF8347010A8FF
:1032A0000FC8B84706462BE0DDE916321899159885
:1032B000CDE90232049101901498DFF834C10090F6
:1032C000DCF800C05CF8347010A80FC8B847064698
:1032D00016E0DDE91623DDE91810CDE90223CDE97A
:1032E0000410DDE91401DFF808C1CDE90001DCF8C4
:1032F00000C05CF8347010A80FC8B847064600BF7D
:1033000000BFFFF7AFFD9DF8180001280CD1384829
:10331000C07D20B9314637A000F03CFB07E03146C4
:1033200036A000F037FB02E033A000F033FB30485A
:1033300090F8EC0088B12E48D0F8F0000A21B0FBDC
:10334000F1F201FB12072A48D0F8F000B0FBF1F8C7
:103350003A4641462CA000F01DFB00BF55E670B573
:103360003148008800F40040002833D02E4805780A
:1033700000202E4948551E4881682C48884704463D
:103380001CB91B49C868804721E02848FFF74EFA5E
:103390000546012D00D02C46CCB1012C06D0022CC4
:1033A00008D0032C0AD0042C10D10BE020A000F090
:1033B000F1FA0BE021A000F0EDFA07E022A000F006
:1033C000E9FA03E023A000F0E5FA00BF00BF002007
:1033D0001549088070BD0146086870470160704754
:1033E00030582558000000002C0000002900000083
:1033F000980000203D256C753B0D0A003D30582596
:10340000583B0D0A0000000046756E6374696F6ECC
:103410002052756E2054696D653A25642E253164FD
:103420006D730D0A00000000380000209501002097
:10343000BAAFCAFDB4EDCEF3210D0A00B2CECAFD7B
:10344000B4EDCEF3210D0A00B2CECAFDCCABB6E08E
:10345000210D0A00CEB4D5D2B5BDC6A5C5E4B5C40C
:10346000BAAFCAFD210D0A0002460AE010780B78B7
:10347000984201D001207047107800B902E0521C38
:10348000491CF3E700BF0020F5E706E002780A7068
:10349000027802B902E0401C491CF7E700BF704700
:1034A0000146002005E00A7802B903E0421CD0B2D0
:1034B000491CF8E700BF704710B50246012000E044
:1034C00050430B1EA1F10104E1B2F9D110BD2DE969
:1034D000F04307460E4600254FF00A083C46002000
:1034E00030601FE02078392802DC207830280ADAA2
:1034F0002078462802DC2078412804DA20785828F1
:1035000009D1012D07D12078412801DB4FF01008A7
:10351000681CC5B205E0207800B904E00120BDE8D0
:10352000F083641CDEE700BF3C46B8F1100F0FD1FA
:10353000032D01DA0220F2E72078302806D16078E6
:10354000582803D1A41CA81EC5B204E00320E6E756
:103550000DB90420E3E71BE00DB1681EC5B2207869
:10356000392806DC2078302803DB2078A0F13009E8
:1035700002E02078A0F1370929464046FFF79CFF7A
:10358000316809FB00103060641C207800B900E04D
:10359000E2E700BF0020C2E710B50446002010702B
:1035A0000BE020780870641C491C1078401C1070D7
:1035B0001078984201DB012010BD2078202802D02D
:1035C00020780028EDD10020087000BFF4E7014604
:1035D000491C00E0491C0878202801D10029F9D1B4
:1035E000087870472DE9FF4F85B08046894600274F
:1035F000002004900390012002904FF0000B002562
:1036000044461DE02078202816D005F07F000528CC
:1036100012DA0DB945F0800505F07F00042803D1CA
:1036200020782A2800D00EE0207805F07F010DF8E0
:103630000100681CC5B202E0852D00D103E0641CC6
:1036400020780028DED100BF8DB1002005F07F0179
:103650000DF80100CBA16846FFF706FF18B900215D
:103660000898017002E001210898017000254FF0D0
:10367000000A444614E0641C0AF1010000F0FF0A4D
:103680002078202802D020782A2809D12046FFF768
:103690009EFF0646282E03D02A2E01D0CDF810A07A
:1036A0002078282802D020780028E4D144460498C5
:1036B00010B10498401C04444FF0000A002654E066
:1036C000207810B94FF0010A50E02078282803D163
:1036D00016B9781CC7B213E02078292808D13EB962
:1036E00017B1781EC7B201E04FF0010A47B93DE0BB
:1036F0002078222804D10EB9012000E000200646DF
:1037000047B9207820282FD0207889F8000009F1C7
:10371000010929E020782C2804D101200290681C9E
:10372000C5B214E02078202811D0207828280ED0A7
:103730004DB9BBF1050F06DA20780DF80B000BF13F
:10374000010000F0FF0B0298401CC0B20290012F54
:103750000AD10298022807D10298401CC0B20290F8
:103760000398401CC0B20390641CA9E700BF0398F3
:10377000012809D100200DF80B0082A16846FFF74F
:1037800073FE08B900200390079903980870002081
:1037900089F80000504609B0BDE8F08FF0B5034647
:1037A0001546002000220026002455E01F782C2F0B
:1037B00001D104B901221F78292F01D01F780FB938
:1037C00004B94AE0002E34D11F78302F02DB1F7875
:1037D000392F11DD1F78612F02DB1F78662F0BDD7B
:1037E0001F78412F02DB1F78462F05DD1F78582FE9
:1037F00002D01F78782F0CD102B12EE01F78612FF4
:1038000003DB1F78203F0F7001E01F780F70491C09
:103810001FE01F78222F04D102B11EE001260124EF
:1038200017E01F78202F14D01F782C2F11D0FF26DF
:1038300013E01F78222F00D1002402B10DE044B123
:103840001F785C2F02D15B1C471CF8B21F780F70E9
:10385000491C471CF8B25B1CA8E700BF00270F708B
:103860002E70F0BD02460020002105E0474B5B5C56
:103870000344D8B24B1CD9B29142F7DB70472DE913
:10388000F043B5B005460F460024002604E00021B1
:103890003E488155701CC6B20A2EF8DB06E06D1C4E
:1038A000287818B9012035B0BDE8F0832878282899
:1038B000F5D16D1C61E034AA69462846FFF76EFF1A
:1038C000064635449DF8D00020B1012827D0FF28B6
:1038D0004CD149E09DF8000000B333A96846FFF7DA
:1038E000F6FD06460EB10220DDE72046FFF7BAFFDF
:1038F00026490A31339A0A50A1F12400008B012194
:10390000A140884321491A39088304211F480155E1
:10391000601CC4B20A2C01DD0320C4E726E068461F
:10392000FFF7BEFD401C00F0FF082046FFF79AFF9E
:1039300016490A3100EB010949466846FFF7A5FD23
:1039400012481A38018B0120A040014388B20F4968
:103950001A3908830D4800F80480601CC4B20A2C90
:1039600001DD03209FE701E002209CE700BF2878EB
:10397000292801D0287800B900E09CE700BF3C70FE
:10398000002090E7766F696400000000B20000201C
:10399000704700000FB4044910B503AA029800F064
:1039A000F5F910BC5DF814FB3400002070B5044636
:1039B00085690068C10601D5302600E02026C007D1
:1039C00007D070BDD4E9012130469047206A401CE1
:1039D00020626D1EF6D570BD70B50446856900780D
:1039E000C00707D170BDD4E9012120209047206A8B
:1039F000401C20626D1EF6D570BD70B50C460546A4
:103A0000012A05D02878800600D5EA69002302E063
:103A1000012305E05B1C934202D2E05C0028F9D14F
:103A2000A869E618C01AA861286A184428622846BE
:103A3000FFF7BCFF04E0D5E9012114F8010B904722
:103A4000B442F8D32846FFF7C7FF70BD2DE9F04117
:103A50000646002410687529314616A510D0AFF32C
:103A60000080002802DA404213A507E031688A0787
:103A700001D512A502E0490704D511A5012401E0F2
:103A8000AFF3008000210A2206F1240709E0B0FB11
:103A9000F2FCB0FBF2F302FB1C0030307854184605
:103AA000491C0028F3D123462A463046BDE8F041A0
:103AB00000F0FCB8000000002D0000002B0000000A
:103AC0002000000070B504460D4621461068AFF393
:103AD00000802188090502D50F4A7A4402E00E4A87
:103AE0007A440E32002104F1240305E000F00F06B1
:103AF0000009965D5E54491C0028F7D12078002308
:103B0000000704D5702D02D009B1022311322046DE
:103B1000BDE8704000F0CAB87C0300002DE9F05FFA
:103B2000894604464FF0000ADFF874B1FB44C0F840
:103B300020A02046E1688847002874D0252806D0B8
:103B4000D4E901219047206A401C2062F1E7002659
:103B50005F462046E16888472028054607DB312D6F
:103B600005D2781910F8200C08B10643F1E7B00728
:103B700001D526F00406C4F81CA00027C4F818A03C
:103B80002A2D09D0284600F061F938B304EB8708E4
:103B9000303DC8F8185019E059F8041B204604EBD2
:103BA00087029161E1688847012F054618D1E069D5
:103BB000002820DA26F020061DE0D8F8180000EBD7
:103BC000800005EB40003038C8F818002046E16856
:103BD0008847054600F03AF90028EED1012F0AD0B7
:103BE0002E2D08D12046E16888477F1C0546022F0C
:103BF00046F02006C4DBA069002803DA404246F004
:103C00000106A061F00701D026F010066C2D0BD044
:103C1000682D09D04C2D39D06A2D35D0742D35D072
:103C20007A2D33D016E038E0E1682F4620468847E9
:103C3000B842054609D16C2F26D04FF48060E16868
:103C4000064320468847054604E06C2F1AD04FF4FF
:103C5000807006430DB3A5F14100192802D8203524
:103C600046F400664A462946204626604E46FCF742
:103C70009BFA80B101280BD0F61D26F0070000F159
:103C8000080956E74020E4E78020D8E70020D6E77F
:103C900006F104094DE7284652E7206ABDE8F09F87
:103CA0005203000070477047704770472DE9F04796
:103CB0000D4699469246044600F12408016888069C
:103CC00004D5E06921F01001216000E00120A84244
:103CD00001DD471B00E00027A1697A1902EB09000A
:103CE000081AA0612078C00602D42046FFF75EFEC5
:103CF000002608E0D4E901211AF806009047206A5E
:103D0000401C761C20624E45F4DB2078C0060AD5A4
:103D10002046FFF74BFE06E0D4E901213020904712
:103D2000206A401C2062381EA7F10107F4DC07E07E
:103D3000D4E9012118F805009047206A401C206250
:103D4000281EA5F10105F3DC2046FFF745FE20788B
:103D5000000602D50220BDE8F0870120FBE710B580
:103D6000436913B1AFF3008001E0FFF746FE012085
:103D700010BD127800F124010A7000224A7001225D
:103D8000EDE711684FF0FF32E9E70000074B70B52F
:103D90000D467B4400F011F80446284600F020F858
:103DA00010B14FF0FF3070BD204670BD4FD3FFFF04
:103DB00001694A1C02610878704700B58FB0CDE9EF
:103DC00001310021059105497944CDE903101146DF
:103DD0006846FFF7A3FE0FB000BD0000E5FFFFFF40
:103DE000007B00F080007047754600F02BF8AE466F
:103DF00005006946534620F00700854618B020B5F7
:103E0000FDF730FABDE820404FF000064FF0000704
:103E10004FF000084FF0000B21F00701AC46ACE872
:103E2000C009ACE8C009ACE8C009ACE8C0098D46DF
:103E3000704710B50446AFF300802046BDE810403F
:103E4000FCF7D0B9004870476002002030380A28DB
:103E500001D20120704700207047303132333435B1
:103E600036373839414243444546403058003031B6
:103E700032333435363738396162636465664030D1
:103E800078000400000800000000000000020001AB
:103E9000000010003F0000006465630069640000DA
:103EA00072756E74696D650068656C700000000065
:103EB0006C6973740000000068657800766F69644F
:103EC000204453333233315F4D6F64696679446106
:103ED000746554696D65287538207965612C207585
:103EE00038206D6F6E2C2075382064612C20753859
:103EF00020686F752C207538206D696E2C20753800
:103F00002073656329090000766F69642077726900
:103F100074655F6164647228753332206164647211
:103F20002C7533322076616C290000007533322005
:103F3000726561645F616464722875333220616404
:103F400064722900766F69642064656C61795F6DC5
:103F50007328753136206E6D73290000766F6964A1
:103F60002064656C61795F757328753332206E75D6
:103F700073290000943F0008000000208C0100001D
:103F8000300100080C4000088C01002034070000BC
:103F90008C01000811800D48E801030406080C108C
:103FA0001820301B0102136C0708090FB00B3F06E5
:103FB0005B4F666D7D077F6FB93629327936139472
:103FC0003E1B08A8041AB0041A9C041AB8041A98D4
:103FD000041AA00413D73314082C3F1B08DD081A59
:103FE00008081387101B0844081A3F081A5C0813B6
:103FF000C9071B08BC28227014202B2F1B084F0454
:0C4000001AF9041A5F301A056801DC0090
:04000005080000F5FA
:00000001FF
